{
  "contractName": "Data",
  "abi": [
    {
      "constant": true,
      "inputs": [],
      "name": "getlengthuser",
      "outputs": [
        {
          "internalType": "uint256",
          "name": "",
          "type": "uint256"
        }
      ],
      "payable": false,
      "stateMutability": "view",
      "type": "function"
    },
    {
      "constant": true,
      "inputs": [
        {
          "internalType": "string",
          "name": "mail",
          "type": "string"
        }
      ],
      "name": "sameaccountcheck",
      "outputs": [
        {
          "internalType": "bool",
          "name": "",
          "type": "bool"
        }
      ],
      "payable": false,
      "stateMutability": "view",
      "type": "function"
    },
    {
      "constant": true,
      "inputs": [
        {
          "internalType": "string",
          "name": "val2",
          "type": "string"
        },
        {
          "internalType": "string",
          "name": "val1",
          "type": "string"
        }
      ],
      "name": "login",
      "outputs": [
        {
          "internalType": "bool",
          "name": "",
          "type": "bool"
        }
      ],
      "payable": false,
      "stateMutability": "view",
      "type": "function"
    },
    {
      "constant": false,
      "inputs": [
        {
          "internalType": "string",
          "name": "mail",
          "type": "string"
        },
        {
          "internalType": "string",
          "name": "passcode",
          "type": "string"
        }
      ],
      "name": "signup",
      "outputs": [],
      "payable": false,
      "stateMutability": "nonpayable",
      "type": "function"
    },
    {
      "constant": true,
      "inputs": [
        {
          "internalType": "string",
          "name": "_number",
          "type": "string"
        }
      ],
      "name": "checksameitemnumberin",
      "outputs": [
        {
          "internalType": "bool",
          "name": "",
          "type": "bool"
        }
      ],
      "payable": false,
      "stateMutability": "view",
      "type": "function"
    },
    {
      "constant": false,
      "inputs": [
        {
          "internalType": "string",
          "name": "_date",
          "type": "string"
        },
        {
          "internalType": "string",
          "name": "_name",
          "type": "string"
        },
        {
          "internalType": "string",
          "name": "_number",
          "type": "string"
        },
        {
          "internalType": "string",
          "name": "expirydate",
          "type": "string"
        },
        {
          "internalType": "int256",
          "name": "_price",
          "type": "int256"
        }
      ],
      "name": "dataenter",
      "outputs": [],
      "payable": false,
      "stateMutability": "nonpayable",
      "type": "function"
    },
    {
      "constant": true,
      "inputs": [],
      "name": "getlength",
      "outputs": [
        {
          "internalType": "uint256",
          "name": "",
          "type": "uint256"
        }
      ],
      "payable": false,
      "stateMutability": "view",
      "type": "function"
    },
    {
      "constant": true,
      "inputs": [
        {
          "internalType": "string",
          "name": "date",
          "type": "string"
        }
      ],
      "name": "totalspending",
      "outputs": [
        {
          "internalType": "uint256",
          "name": "",
          "type": "uint256"
        }
      ],
      "payable": false,
      "stateMutability": "view",
      "type": "function"
    },
    {
      "constant": true,
      "inputs": [
        {
          "internalType": "string",
          "name": "_date",
          "type": "string"
        }
      ],
      "name": "getItemCountOnAParticularDay",
      "outputs": [
        {
          "internalType": "uint256",
          "name": "",
          "type": "uint256"
        }
      ],
      "payable": false,
      "stateMutability": "view",
      "type": "function"
    },
    {
      "constant": true,
      "inputs": [
        {
          "internalType": "string",
          "name": "itemnumber",
          "type": "string"
        }
      ],
      "name": "getinfo",
      "outputs": [
        {
          "internalType": "string",
          "name": "",
          "type": "string"
        }
      ],
      "payable": false,
      "stateMutability": "view",
      "type": "function"
    }
  ],
  "bytecode": "0x608060405234801561001057600080fd5b50612194806100206000396000f3fe608060405234801561001057600080fd5b506004361061009e5760003560e01c8063a16d359811610066578063a16d359814610639578063a66fe88d14610657578063b249c6ef14610675578063c1676f9d146108ff578063d0b0e2d6146109ce5761009e565b806329ff648b146100a357806347e70e6414610176578063505befdf146102c857806358467dbc1461039b578063902929f414610505575b600080fd5b61015c600480360360208110156100b957600080fd5b81019080803590602001906401000000008111156100d657600080fd5b8201836020820111156100e857600080fd5b8035906020019184600183028401116401000000008311171561010a57600080fd5b91908080601f016020809104026020016040519081016040528093929190818152602001838380828437600081840152601f19601f820116905080830192505050505050509192919290505050610a9d565b604051808215151515815260200191505060405180910390f35b6102c66004803603604081101561018c57600080fd5b81019080803590602001906401000000008111156101a957600080fd5b8201836020820111156101bb57600080fd5b803590602001918460018302840111640100000000831117156101dd57600080fd5b91908080601f016020809104026020016040519081016040528093929190818152602001838380828437600081840152601f19601f8201169050808301925050505050505091929192908035906020019064010000000081111561024057600080fd5b82018360208201111561025257600080fd5b8035906020019184600183028401116401000000008311171561027457600080fd5b91908080601f016020809104026020016040519081016040528093929190818152602001838380828437600081840152601f19601f820116905080830192505050505050509192919290505050610c48565b005b610381600480360360208110156102de57600080fd5b81019080803590602001906401000000008111156102fb57600080fd5b82018360208201111561030d57600080fd5b8035906020019184600183028401116401000000008311171561032f57600080fd5b91908080601f016020809104026020016040519081016040528093929190818152602001838380828437600081840152601f19601f820116905080830192505050505050509192919290505050610c9e565b604051808215151515815260200191505060405180910390f35b6104eb600480360360408110156103b157600080fd5b81019080803590602001906401000000008111156103ce57600080fd5b8201836020820111156103e057600080fd5b8035906020019184600183028401116401000000008311171561040257600080fd5b91908080601f016020809104026020016040519081016040528093929190818152602001838380828437600081840152601f19601f8201169050808301925050505050505091929192908035906020019064010000000081111561046557600080fd5b82018360208201111561047757600080fd5b8035906020019184600183028401116401000000008311171561049957600080fd5b91908080601f016020809104026020016040519081016040528093929190818152602001838380828437600081840152601f19601f820116905080830192505050505050509192919290505050610dee565b604051808215151515815260200191505060405180910390f35b6105be6004803603602081101561051b57600080fd5b810190808035906020019064010000000081111561053857600080fd5b82018360208201111561054a57600080fd5b8035906020019184600183028401116401000000008311171561056c57600080fd5b91908080601f016020809104026020016040519081016040528093929190818152602001838380828437600081840152601f19601f82011690508083019250505050505050919291929050505061105d565b6040518080602001828103825283818151815260200191508051906020019080838360005b838110156105fe5780820151818401526020810190506105e3565b50505050905090810190601f16801561062b5780820380516001836020036101000a031916815260200191505b509250505060405180910390f35b610641611317565b6040518082815260200191505060405180910390f35b61065f611323565b6040518082815260200191505060405180910390f35b6108fd600480360360a081101561068b57600080fd5b81019080803590602001906401000000008111156106a857600080fd5b8201836020820111156106ba57600080fd5b803590602001918460018302840111640100000000831117156106dc57600080fd5b91908080601f016020809104026020016040519081016040528093929190818152602001838380828437600081840152601f19601f8201169050808301925050505050505091929192908035906020019064010000000081111561073f57600080fd5b82018360208201111561075157600080fd5b8035906020019184600183028401116401000000008311171561077357600080fd5b91908080601f016020809104026020016040519081016040528093929190818152602001838380828437600081840152601f19601f820116905080830192505050505050509192919290803590602001906401000000008111156107d657600080fd5b8201836020820111156107e857600080fd5b8035906020019184600183028401116401000000008311171561080a57600080fd5b91908080601f016020809104026020016040519081016040528093929190818152602001838380828437600081840152601f19601f8201169050808301925050505050505091929192908035906020019064010000000081111561086d57600080fd5b82018360208201111561087f57600080fd5b803590602001918460018302840111640100000000831117156108a157600080fd5b91908080601f016020809104026020016040519081016040528093929190818152602001838380828437600081840152601f19601f82011690508083019250505050505050919291929080359060200190929190505050611330565b005b6109b86004803603602081101561091557600080fd5b810190808035906020019064010000000081111561093257600080fd5b82018360208201111561094457600080fd5b8035906020019184600183028401116401000000008311171561096657600080fd5b91908080601f016020809104026020016040519081016040528093929190818152602001838380828437600081840152601f19601f820116905080830192505050505050509192919290505050611adb565b6040518082815260200191505060405180910390f35b610a87600480360360208110156109e457600080fd5b8101908080359060200190640100000000811115610a0157600080fd5b820183602082011115610a1357600080fd5b80359060200191846001830284011164010000000083111715610a3557600080fd5b91908080601f016020809104026020016040519081016040528093929190818152602001838380828437600081840152601f19601f820116905080830192505050505050509192919290505050611c44565b6040518082815260200191505060405180910390f35b600080600090505b600080549050811015610c3d576000600190505b60008281548110610ac657fe5b906000526020600020906003020160010180549050811015610c2f57836040516020018082805190602001908083835b60208310610b195780518252602082019150602081019050602083039250610af6565b6001836020036101000a0380198251168184511680821785525050505050509050019150506040516020818303038152906040528051906020012060008381548110610b6157fe5b90600052602060002090600302016001018281548110610b7d57fe5b9060005260206000209060030201600160038110610b9757fe5b016040516020018082805460018160011615610100020316600290048015610bf65780601f10610bd4576101008083540402835291820191610bf6565b820191906000526020600020905b815481529060010190602001808311610be2575b5050915050604051602081830303815290604052805190602001201415610c2257600192505050610c43565b8080600101915050610ab9565b508080600101915050610aa5565b50600090505b919050565b600160405180604001604052808481526020018381525090806001815401808255809150509060018203906000526020600020906002020160009091929091909150906002610c98929190611dfb565b50505050565b600080600090505b600180549050811015610de357826040516020018082805190602001908083835b60208310610cea5780518252602082019150602081019050602083039250610cc7565b6001836020036101000a0380198251168184511680821785525050505050509050019150506040516020818303038152906040528051906020012060018281548110610d3257fe5b9060005260206000209060020201600060028110610d4c57fe5b016040516020018082805460018160011615610100020316600290048015610dab5780601f10610d89576101008083540402835291820191610dab565b820191906000526020600020905b815481529060010190602001808311610d97575b5050915050604051602081830303815290604052805190602001201415610dd6576001915050610de9565b8080600101915050610ca6565b50600090505b919050565b600080600090505b610dfe611323565b81101561105157836040516020018082805190602001908083835b60208310610e3c5780518252602082019150602081019050602083039250610e19565b6001836020036101000a0380198251168184511680821785525050505050509050019150506040516020818303038152906040528051906020012060018281548110610e8457fe5b9060005260206000209060020201600060028110610e9e57fe5b016040516020018082805460018160011615610100020316600290048015610efd5780601f10610edb576101008083540402835291820191610efd565b820191906000526020600020905b815481529060010190602001808311610ee9575b5050915050604051602081830303815290604052805190602001201480156110355750826040516020018082805190602001908083835b60208310610f575780518252602082019150602081019050602083039250610f34565b6001836020036101000a0380198251168184511680821785525050505050509050019150506040516020818303038152906040528051906020012060018281548110610f9f57fe5b9060005260206000209060020201600160028110610fb957fe5b0160405160200180828054600181600116156101000203166002900480156110185780601f10610ff6576101008083540402835291820191611018565b820191906000526020600020905b815481529060010190602001808311611004575b505091505060405160208183030381529060405280519060200120145b15611044576001915050611057565b8080600101915050610df6565b50600090505b92915050565b606060008090505b6000805490508110156112d8576000600190505b6000828154811061108657fe5b9060005260206000209060030201600101805490508110156112ca57836040516020018082805190602001908083835b602083106110d957805182526020820191506020810190506020830392506110b6565b6001836020036101000a038019825116818451168082178552505050505050905001915050604051602081830303815290604052805190602001206000838154811061112157fe5b9060005260206000209060030201600101828154811061113d57fe5b906000526020600020906003020160016003811061115757fe5b0160405160200180828054600181600116156101000203166002900480156111b65780601f106111945761010080835404028352918201916111b6565b820191906000526020600020905b8154815290600101906020018083116111a2575b50509150506040516020818303038152906040528051906020012014156112bd57600082815481106111e457fe5b9060005260206000209060030201600101818154811061120057fe5b906000526020600020906003020160026003811061121a57fe5b018054600181600116156101000203166002900480601f0160208091040260200160405190810160405280929190818152602001828054600181600116156101000203166002900480156112af5780601f10611284576101008083540402835291602001916112af565b820191906000526020600020905b81548152906001019060200180831161129257829003601f168201915b505050505092505050611312565b8080600101915050611079565b508080600101915050611065565b506040518060400160405280601581526020017f416e746971756520646f65736e7420657873697374000000000000000000000081525090505b919050565b60008080549050905090565b6000600180549050905090565b6000808054905090506000151561134685610a9d565b15151415611ad3576000811461180357856040516020018082805190602001908083835b6020831061138d578051825260208201915060208101905060208303925061136a565b6001836020036101000a03801982511681845116808217855250505050505090500191505060405160208183030381529060405280519060200120600060018303815481106113d857fe5b906000526020600020906003020160000160405160200180828054600181600116156101000203166002900480156114475780601f10611425576101008083540402835291820191611447565b820191906000526020600020905b815481529060010190602001808311611433575b505091505060405160208183030381529060405280519060200120141561152f576000600182038154811061147857fe5b9060005260206000209060030201600101604051806060016040528087815260200186815260200185815250908060018154018082558091505090600182039060005260206000209060030201600090919290919091509060036114dd929190611e4e565b5050600060018203815481106114ef57fe5b90600052602060002090600302016002018290806001815401808255809150509060018203906000526020600020016000909192909190915055506117fe565b6060600160405190808252806020026020018201604052801561156c57816020015b611559611ea1565b8152602001906001900390816115515790505b50905060405180606001604052806040518060400160405280600881526020017f6974656d6e616d6500000000000000000000000000000000000000000000000081525081526020016040518060400160405280600a81526020017f6974656d6e756d6265720000000000000000000000000000000000000000000081525081526020016040518060400160405280600b81526020017f65787069726179646174650000000000000000000000000000000000000000008152508152508160008151811061163657fe5b6020026020010181905250606060016040519080825280602002602001820160405280156116735781602001602082028038833980820191505090505b50905060018160008151811061168557fe5b602002602001018181525050611699611ec8565b60405180606001604052808a8152602001848152602001838152509050600081908060018154018082558091505090600182039060005260206000209060030201600090919290919091506000820151816000019080519060200190611700929190611ee9565b50602082015181600101908051906020019061171d929190611f69565b50604082015181600201908051906020019061173a929190611fc7565b505050506000848154811061174b57fe5b906000526020600020906003020160010160405180606001604052808a815260200189815260200188815250908060018154018082558091505090600182039060005260206000209060030201600090919290919091509060036117b0929190611e4e565b5050600084815481106117bf57fe5b90600052602060002090600302016002018590806001815401808255809150509060018203906000526020600020016000909192909190915055505050505b611ad2565b6060600160405190808252806020026020018201604052801561184057816020015b61182d611ea1565b8152602001906001900390816118255790505b50905060405180606001604052806040518060400160405280600381526020017f6c6f6c000000000000000000000000000000000000000000000000000000000081525081526020016040518060400160405280600481526020017f6c6f6c310000000000000000000000000000000000000000000000000000000081525081526020016040518060400160405280600481526020017f6c6f6c33000000000000000000000000000000000000000000000000000000008152508152508160008151811061190a57fe5b6020026020010181905250606060016040519080825280602002602001820160405280156119475781602001602082028038833980820191505090505b50905060018160008151811061195957fe5b60200260200101818152505061196d611ec8565b60405180606001604052808a81526020018481526020018381525090506000819080600181540180825580915050906001820390600052602060002090600302016000909192909190915060008201518160000190805190602001906119d4929190611ee9565b5060208201518160010190805190602001906119f1929190611f69565b506040820151816002019080519060200190611a0e929190611fc7565b5050505060008481548110611a1f57fe5b906000526020600020906003020160010160405180606001604052808a81526020018981526020018881525090806001815401808255809150509060018203906000526020600020906003020160009091929091909150906003611a84929190611e4e565b505060008481548110611a9357fe5b90600052602060002090600302016002018590806001815401808255809150509060018203906000526020600020016000909192909190915055505050505b5b505050505050565b600080600090505b600080549050811015611c3957826040516020018082805190602001908083835b60208310611b275780518252602082019150602081019050602083039250611b04565b6001836020036101000a0380198251168184511680821785525050505050509050019150506040516020818303038152906040528051906020012060008281548110611b6f57fe5b90600052602060002090600302016000016040516020018082805460018160011615610100020316600290048015611bde5780601f10611bbc576101008083540402835291820191611bde565b820191906000526020600020905b815481529060010190602001808311611bca575b5050915050604051602081830303815290604052805190602001201415611c2c57600160008281548110611c0e57fe5b90600052602060002090600302016001018054905003915050611c3f565b8080600101915050611ae3565b50600090505b919050565b6000806000905060008090505b600080549050811015611df157836040516020018082805190602001908083835b60208310611c955780518252602082019150602081019050602083039250611c72565b6001836020036101000a0380198251168184511680821785525050505050509050019150506040516020818303038152906040528051906020012060008281548110611cdd57fe5b90600052602060002090600302016000016040516020018082805460018160011615610100020316600290048015611d4c5780601f10611d2a576101008083540402835291820191611d4c565b820191906000526020600020905b815481529060010190602001808311611d38575b5050915050604051602081830303815290604052805190602001201415611de4576000600190505b60008281548110611d8157fe5b906000526020600020906003020160020180549050811015611de25760008281548110611daa57fe5b90600052602060002090600302016002018181548110611dc657fe5b9060005260206000200154830192508080600101915050611d74565b505b8080600101915050611c51565b5080915050919050565b8260028101928215611e3d579160200282015b82811115611e3c578251829080519060200190611e2c929190611ee9565b5091602001919060010190611e0e565b5b509050611e4a9190612014565b5090565b8260038101928215611e90579160200282015b82811115611e8f578251829080519060200190611e7f929190611ee9565b5091602001919060010190611e61565b5b509050611e9d9190612014565b5090565b60405180606001604052806003905b6060815260200190600190039081611eb05790505090565b60405180606001604052806060815260200160608152602001606081525090565b828054600181600116156101000203166002900490600052602060002090601f016020900481019282601f10611f2a57805160ff1916838001178555611f58565b82800160010185558215611f58579182015b82811115611f57578251825591602001919060010190611f3c565b5b509050611f659190612040565b5090565b828054828255906000526020600020906003028101928215611fb6579160200282015b82811115611fb557825182906003611fa5929190612065565b5091602001919060030190611f8c565b5b509050611fc391906120b8565b5090565b828054828255906000526020600020908101928215612003579160200282015b82811115612002578251825591602001919060010190611fe7565b5b5090506120109190612040565b5090565b61203d91905b80821115612039576000818161203091906120e4565b5060010161201a565b5090565b90565b61206291905b8082111561205e576000816000905550600101612046565b5090565b90565b82600381019282156120a7579160200282015b828111156120a6578251829080519060200190612096929190611ee9565b5091602001919060010190612078565b5b5090506120b49190612014565b5090565b6120e191905b808211156120dd57600081816120d4919061212c565b506003016120be565b5090565b90565b50805460018160011615610100020316600290046000825580601f1061210a5750612129565b601f0160209004906000526020600020908101906121289190612040565b5b50565b506000818161213b91906120e4565b506001016000818161214d91906120e4565b50600101600061215d91906120e4565b56fea265627a7a72315820e42ec8592781f4d844664d7ca8ad98b9b29a7b048e15f20bf3d21f9627f46b8a64736f6c63430005100032",
  "source": "pragma solidity 0.5.16;\n\ncontract Data{\n\n    struct dataentry{\n    string date;\n    string [3][] supply;\n    uint []price;\n    }\n\n    dataentry[] private values;  //add antique\n    string[2][] private user;    //user\n    \n    function getlengthuser() public view returns (uint){\n        return user.length;\n    }\n\n\n    function sameaccountcheck (string memory mail) public view returns (bool){\n         for(uint i = 0; i < user.length;i++){\n            if (keccak256(abi.encodePacked(user[i][0])) == keccak256(abi.encodePacked(mail)))\n                {\n                    return true;\n                }\n        }\n        return false;\n    }\n\n\n    function login(string memory val2, string memory val1) public view returns(bool)\n    {\n        for(uint i = 0; i < getlengthuser();i++){\n            if (keccak256(abi.encodePacked(user[i][0])) == keccak256(abi.encodePacked(val2)) && keccak256(abi.encodePacked(user[i][1])) == keccak256(abi.encodePacked(val1)))\n                {\n                    return true;\n                }\n        }\n        return false;\n    }\n    \n    \n    function signup(string memory mail, string memory passcode) public{\n        \n        user.push([mail ,passcode]);\n    }\n\n    //To check that the antique with same ID doesnot exist before\n    function checksameitemnumberin(string memory _number) public view returns(bool)\n    {\n       for (uint i =0 ; i < values.length ; i++)\n        {\n            for(uint j =1 ; j< values[i].supply.length;j++)\n            {\n                if (keccak256(abi.encodePacked(values[i].supply[j][1])) == keccak256(abi.encodePacked(_number)))\n                {\n                    return true;\n                    \n                }\n\n            }\n            \n        }\n        return false;\n    }\n\n    //To Add antiques\n    function dataenter(string memory _date,string memory _name, string memory _number , string memory expirydate , int _price) public{\n    uint _len = values.length; \n        if(checksameitemnumberin(_number) == false)\n        {\n            if (_len != 0)\n            {\n                if (keccak256(abi.encodePacked(values[_len-1].date))   ==  keccak256(abi.encodePacked(_date)))\n                {\n                    values[_len-1].supply.push([_name,_number,expirydate]);\n                    values[_len-1].price.push(uint(_price));  \n                    }\n                else\n                {\n                    string[3][] memory dummy = new string[3][](1) ;\n                    dummy[0]=[\"itemname\" , \"itemnumber\" , \"expiraydate\"];\n                    uint[]  memory  dummyprice= new uint[](1);\n                    dummyprice[0]= 1;\n                    dataentry memory val = dataentry(_date,dummy,dummyprice);\n                    values.push(val);\n                    values[_len].supply.push([_name,_number,expirydate]);\n                    values[_len].price.push(uint(_price));  \n\n                }\n\n            }\n            else\n            {\n                string[3][] memory dummy = new string[3][](1) ;\n                dummy[0]=[\"lol\" , \"lol1\" , \"lol3\"];\n                uint[]  memory  dummyprice= new uint[](1);\n                dummyprice[0]= 1;\n                dataentry memory val = dataentry(_date,dummy,dummyprice);\n                values.push(val);\n                values[_len].supply.push([_name,_number,expirydate]);\n                values[_len].price.push(uint(_price));  \n            }\n        }\n\n    }\n\n    function getlength() public view returns(uint){\n        return values.length;\n    }\n\n    //Total Sales\n    //Returns the total amount that has been earned on a particular date \n    //i.e Add all the amount of antiques that were added using ADD ANTIQUES PAGE on that date\n    function totalspending(string memory date) public view returns(uint){\n        uint sum = 0;\n        for (uint i =0 ; i < values.length ; i++)\n        {\n            if (keccak256(abi.encodePacked(values[i].date)) == keccak256(abi.encodePacked(date)))\n            {\n                for(uint j =1 ; j< values[i].price.length;j++)\n                {\n                    sum = sum + values[i].price[j] ;\n                }\n            }\n        }\n        return sum;    \n    }\n\n    //Total Antiques Sold\n    //Returns the count of Antiques sold on particular date\n    function getItemCountOnAParticularDay(string memory _date) public view returns(uint){\n        for (uint i =0 ; i< values.length ; i++)\n        {\n             if (keccak256(abi.encodePacked(values[i].date))   ==  keccak256(abi.encodePacked(_date)))\n             {\n                 return values[i].supply.length-1;\n\n             }\n        }\n        return 0;\n\n    }\n\n    //Antique Details\n    function getinfo (string memory itemnumber) public view returns( string memory)\n    {   \n        \n        for (uint i =0 ; i < values.length ; i++)\n        {\n            for(uint j =1 ; j< values[i].supply.length;j++)\n            {\n                if (keccak256(abi.encodePacked(values[i].supply[j][1])) == keccak256(abi.encodePacked(itemnumber)))\n                {\n                    return values[i].supply[j][2];\n                    \n                }\n\n            }\n            \n        }\n        return \"Antique doesnt exsist\";\n\n    }\n}\n",
  "sourcePath": "/home/kashif/Desktop/antiques-ver/contracts/Data.sol",
  "compiler": {
    "name": "solc",
    "version": "0.5.16+commit.9c3226ce.Emscripten.clang"
  },
  "schemaVersion": "3.4.10",
  "updatedAt": "2023-01-14T13:03:17.932Z",
  "devdoc": {
    "methods": {}
  },
  "userdoc": {
    "methods": {}
  }
}