{
  "contractName": "User",
  "abi": [
    {
      "constant": true,
      "inputs": [],
      "name": "getlength",
      "outputs": [
        {
          "internalType": "uint256",
          "name": "",
          "type": "uint256"
        }
      ],
      "payable": false,
      "stateMutability": "view",
      "type": "function"
    },
    {
      "constant": true,
      "inputs": [
        {
          "internalType": "string",
          "name": "val2",
          "type": "string"
        },
        {
          "internalType": "string",
          "name": "val1",
          "type": "string"
        }
      ],
      "name": "login",
      "outputs": [
        {
          "internalType": "bool",
          "name": "",
          "type": "bool"
        }
      ],
      "payable": false,
      "stateMutability": "view",
      "type": "function"
    },
    {
      "constant": false,
      "inputs": [
        {
          "internalType": "string",
          "name": "mail",
          "type": "string"
        },
        {
          "internalType": "string",
          "name": "passcode",
          "type": "string"
        }
      ],
      "name": "signup",
      "outputs": [],
      "payable": false,
      "stateMutability": "nonpayable",
      "type": "function"
    }
  ],
  "bytecode": "0x608060405234801561001057600080fd5b50610792806100206000396000f3fe608060405234801561001057600080fd5b50600436106100415760003560e01c806347e70e641461004657806358467dbc14610198578063a16d359814610302575b600080fd5b6101966004803603604081101561005c57600080fd5b810190808035906020019064010000000081111561007957600080fd5b82018360208201111561008b57600080fd5b803590602001918460018302840111640100000000831117156100ad57600080fd5b91908080601f016020809104026020016040519081016040528093929190818152602001838380828437600081840152601f19601f8201169050808301925050505050505091929192908035906020019064010000000081111561011057600080fd5b82018360208201111561012257600080fd5b8035906020019184600183028401116401000000008311171561014457600080fd5b91908080601f016020809104026020016040519081016040528093929190818152602001838380828437600081840152601f19601f820116905080830192505050505050509192919290505050610320565b005b6102e8600480360360408110156101ae57600080fd5b81019080803590602001906401000000008111156101cb57600080fd5b8201836020820111156101dd57600080fd5b803590602001918460018302840111640100000000831117156101ff57600080fd5b91908080601f016020809104026020016040519081016040528093929190818152602001838380828437600081840152601f19601f8201169050808301925050505050505091929192908035906020019064010000000081111561026257600080fd5b82018360208201111561027457600080fd5b8035906020019184600183028401116401000000008311171561029657600080fd5b91908080601f016020809104026020016040519081016040528093929190818152602001838380828437600081840152601f19601f820116905080830192505050505050509192919290505050610376565b604051808215151515815260200191505060405180910390f35b61030a6105e5565b6040518082815260200191505060405180910390f35b6000604051806040016040528084815260200183815250908060018154018082558091505090600182039060005260206000209060020201600090919290919091509060026103709291906105f1565b50505050565b600080600090505b6103866105e5565b8110156105d957836040516020018082805190602001908083835b602083106103c457805182526020820191506020810190506020830392506103a1565b6001836020036101000a038019825116818451168082178552505050505050905001915050604051602081830303815290604052805190602001206000828154811061040c57fe5b906000526020600020906002020160006002811061042657fe5b0160405160200180828054600181600116156101000203166002900480156104855780601f10610463576101008083540402835291820191610485565b820191906000526020600020905b815481529060010190602001808311610471575b5050915050604051602081830303815290604052805190602001201480156105bd5750826040516020018082805190602001908083835b602083106104df57805182526020820191506020810190506020830392506104bc565b6001836020036101000a038019825116818451168082178552505050505050905001915050604051602081830303815290604052805190602001206000828154811061052757fe5b906000526020600020906002020160016002811061054157fe5b0160405160200180828054600181600116156101000203166002900480156105a05780601f1061057e5761010080835404028352918201916105a0565b820191906000526020600020905b81548152906001019060200180831161058c575b505091505060405160208183030381529060405280519060200120145b156105cc5760019150506105df565b808060010191505061037e565b50600090505b92915050565b60008080549050905090565b8260028101928215610633579160200282015b82811115610632578251829080519060200190610622929190610644565b5091602001919060010190610604565b5b50905061064091906106c4565b5090565b828054600181600116156101000203166002900490600052602060002090601f016020900481019282601f1061068557805160ff19168380011785556106b3565b828001600101855582156106b3579182015b828111156106b2578251825591602001919060010190610697565b5b5090506106c091906106f0565b5090565b6106ed91905b808211156106e957600081816106e09190610715565b506001016106ca565b5090565b90565b61071291905b8082111561070e5760008160009055506001016106f6565b5090565b90565b50805460018160011615610100020316600290046000825580601f1061073b575061075a565b601f01602090049060005260206000209081019061075991906106f0565b5b5056fea265627a7a72315820a9f9c0b85db74ea4d1b3fcedb6a408da4c062f0c8bef1f5560541088ea1795f164736f6c63430005100032",
  "source": "pragma solidity 0.5.16;\n\n contract User{\n\n   string[2][] private user;\n    \n    function getlength() public view returns (uint){\n        return user.length;\n   }\n    \n function login(string memory val2, string memory val1) public view returns(bool)\n    {\n        for(uint i = 0; i < getlength();i++){\n            if (keccak256(abi.encodePacked(user[i][0])) == keccak256(abi.encodePacked(val2)) && keccak256(abi.encodePacked(user[i][1])) == keccak256(abi.encodePacked(val1)))\n                {\n                    return true;\n                }\n        }\n            return false;\n    }\n    \n function signup(string memory mail, string memory passcode) public {\n        user.push([mail ,passcode]);\n    }\n\n}",
  "sourcePath": "/Users/haiderabbas/Desktop/blockchain/contracts/User.sol",
  "compiler": {
    "name": "solc",
    "version": "0.5.16+commit.9c3226ce.Emscripten.clang"
  },
  "schemaVersion": "3.4.7",
  "updatedAt": "2022-05-27T13:20:10.942Z",
  "networkType": "ethereum",
  "devdoc": {
    "methods": {}
  },
  "userdoc": {
    "methods": {}
  }
}